C51 COMPILER V8.02   NEW                                                                   02/23/2018 15:14:32 PAGE 1   


C51 COMPILER V8.02, COMPILATION OF MODULE NEW
OBJECT MODULE PLACED IN new.OBJ
COMPILER INVOKED BY: C:\Keil\C51\BIN\C51.EXE new.c BROWSE DEBUG OBJECTEXTEND

line level    source

   1          #include<reg51.h>
   2          sbit latch = P1^0;
   3          
   4          sbit switch_pin0 = P0^0;
   5          sbit switch_pin1 = P0^1;
   6          sbit switch_pin2 = P0^2;
   7          sbit switch_pin3 = P0^3;
   8          sbit switch_pin4 = P0^4;
   9          sbit switch_pin5 = P0^5;
  10          sbit switch_pin6 = P0^6;
  11          sbit switch_pin7 = P0^7;
  12          
  13          sbit led_pin0 = P2^0;
  14          sbit led_pin1 = P2^1;
  15          sbit led_pin2 = P2^2;
  16          sbit led_pin3 = P2^3;
  17          sbit led_pin4 = P2^4;
  18          sbit led_pin5 = P2^5;
  19          sbit led_pin6 = P2^6;
  20          sbit led_pin7 = P2^7;
  21          
  22          int m = 0;
  23          
  24          void main(void) {
  25   1              latch = 1;
  26   1      
  27   1              if(switch_pin0 == 0) {
  28   2                      led_pin0 = 0;
  29   2              } else if(switch_pin0 == 1) {
  30   2                      led_pin0 = 1;
  31   2              }
  32   1      
  33   1              if(switch_pin1 == 0) {
  34   2                      led_pin1 = 0;
  35   2              } else if(switch_pin1 == 1) {
  36   2                      led_pin1 = 1;
  37   2              }
  38   1      
  39   1              if(switch_pin2 == 0) {
  40   2                      led_pin2 = 0;
  41   2              } else if(switch_pin2 == 1) {
  42   2                      led_pin2 = 1;
  43   2              }
  44   1      
  45   1              if(switch_pin3 == 0) {
  46   2                      led_pin3 = 0;
  47   2              } else if(switch_pin3 == 1) {
  48   2                      led_pin3 = 1;
  49   2              }
  50   1      
  51   1              if(switch_pin4 == 0) {
  52   2                      led_pin4 = 0;
  53   2              } else if(switch_pin4 == 1) {
  54   2                      led_pin4 = 1;
  55   2              }
C51 COMPILER V8.02   NEW                                                                   02/23/2018 15:14:32 PAGE 2   

  56   1      
  57   1              if(switch_pin5 == 0) {
  58   2                      led_pin5 = 0;
  59   2              } else if(switch_pin5 == 1) {
  60   2                      led_pin5 = 1;
  61   2              }
  62   1      
  63   1              if(switch_pin6 == 0) {
  64   2                      led_pin6 = 0;
  65   2              } else if(switch_pin6 == 1) {
  66   2                      led_pin6 = 1;
  67   2              }
  68   1      
  69   1              if(switch_pin7 == 0) {
  70   2                      led_pin7 = 0;
  71   2              } else if(switch_pin7 == 1) {
  72   2                      led_pin7 = 1;
  73   2              }
  74   1      }


MODULE INFORMATION:   STATIC OVERLAYABLE
   CODE SIZE        =     98    ----
   CONSTANT SIZE    =   ----    ----
   XDATA SIZE       =   ----    ----
   PDATA SIZE       =   ----    ----
   DATA SIZE        =      2    ----
   IDATA SIZE       =   ----    ----
   BIT SIZE         =   ----    ----
END OF MODULE INFORMATION.


C51 COMPILATION COMPLETE.  0 WARNING(S),  0 ERROR(S)
